:020000040000FA
:100000008316860188018312860188010530A200CB
:100010000630A3000730A400220822072207220787
:100020002207A0002308230720022407A100033091
:100030002102A50005302207B00030083007300744
:100040003007B00023082307230730022407A60047
:100050002208B10031080310B10C2308B2003208A5
:100060000310B20C2408B30033080310B30C0310C0
:10007000B30C310832073307A700220822072207F2
:10008000B40023083402B5002408240724073502ED
:10009000B60036083607B7001E303702A80025081C
:1000A0002507250726072607B8002708B9003908BD
:1000B0000310B90C39083802C00028084002880033
:0200C0006028B6
:0400C20000340034D2
:02400E00713D02
:00000001FF
