:020000040000FA
:100000008316880186018312003086000030A1002B
:100010000130A0000030A300A20120088800362093
:10002000A20A0F30220203191A28073023020318EC
:1000300032282D2888013620FF308800362088019C
:100040003620FF3088003620880136200130A0009D
:10005000A2010030A100A301042803190310A00D80
:10006000A30A0D280310A00CA30A0D28FA30930050
:10007000FA3094000000940B3A28930B38280800BB
:040080000034003414
:02400E00713D02
:00000001FF
