:020000040000FA
:10000000831685018801FF308600831280018801F4
:1000100085018516D0013A2050084F208800152808
:10002000542050084F2088005420D4018619D40A47
:10003000061AD40A861AD40A013054020319152864
:10004000861D2728061E2E28861E372815280930CB
:100050005002D00A031C1028D00110280030500292
:1000600003193428D00310280930D0001028D001FB
:10007000102815283F30A0000630A1005B30A200F8
:100080004F30A3006630A4006D30A5007D30A6007F
:100090000730A7007F30A8006F30A9000800840057
:1000A00020308407000808006430F500FA30F600BC
:0C00B0000000F60B5828F50B562808003D
:0400BC0000340034D8
:02400E00713D02
:00000001FF
