:020000040000FA
:1000000083168501880183128801850100307108FB
:10001000003072305A30F0003720F301700873025C
:1000200003182028851605127108322088004C20FC
:10003000851205167208322088004C20F30A0E281B
:10004000F10A0A307102031D2728F101F20A023079
:100050007202031D312801307102031D3128F101A4
:10006000F2010D28840020308407000808003F308A
:10007000A0000630A1005B30A2004F30A300663024
:10008000A4006D30A5007D30A6000730A7007F30AA
:10009000A8006F30A90008000530F400FA30F50020
:0C00A0000000F50B5028F40B4E2808005F
:0400AC0000340034E8
:02400E00713D02
:00000001FF
